:020000040800F2
:10000000A8040020A1010008631300089F0F000846
:10001000611300088D0300081D1600080000000091
:10002000000000000000000000000000671300084E
:10003000950300080000000065130008F313000892
:10004000BB010008BB010008BB010008BB010008A0
:10005000BB010008BB010008BB010008BB01000890
:10006000BB010008BB010008BB010008BB01000880
:10007000BB010008BB010008BB010008BB01000870
:10008000BB010008BB010008BB010008BB01000860
:10009000BB010008BB010008BB010008BB01000850
:1000A000BB010008BB010008BB010008BB01000840
:1000B000BB010008BB010008BB010008BB01000830
:1000C000BB010008BB010008BB010008BB01000820
:1000D000BB010008BB010008BB010008BB01000810
:1000E000BB010008BB010008BB010008BB01000800
:1000F000BB010008BB010008BB010008BB010008F0
:10010000BB010008BB010008BB010008BB010008DF
:10011000BB010008BB010008BB010008BB010008CF
:10012000BB010008BB010008BB010008BB010008BF
:10013000BB010008BB010008BB010008BB010008AF
:10014000BB010008BB010008BB010008BB0100089F
:10015000BB010008BB010008BB010008BB0100088F
:10016000BB010008BB010008BB010008BB0100087F
:10017000BB010008BB010008BB0100080000000033
:10018000BB010008BB010008DFF810D000F084F8C4
:10019000004800478D190008AFF30080A804002034
:1001A0000648804706480047FEE7FEE7FEE7FEE711
:1001B000FEE7FEE7FEE7FEE7FEE7FEE77514000850
:1001C000890100082DE9F05F0546002092469B4614
:1001D00088460646814640241BE02846414647465D
:1001E000224600F048F853465A46C01A914110D3AF
:1001F00011461846224600F02FF82D1A67EB010829
:100200004F4622460120002100F026F817EB000996
:100210004E41201EA4F10104DFDC484631462A4647
:100220004346BDE8F09FD2B201E000F8012B491E21
:10023000FBD270470022F6E710B513460A46044683
:100240001946FFF7F0FF204610BD421C10F8011BB5
:100250000029FBD1801A7047202A04DB203A00FADB
:1002600002F1002070479140C2F1200320FA03F30D
:10027000194390407047202A04DB203A21FA02F00B
:100280000021704721FA02F3D040C2F120029140D0
:100290000843194670470000064C074D06E0E06829
:1002A00040F0010394E8070098471034AC42F6D3BD
:1002B000FFF76EFF781A0008981A000810B5FF20A3
:1002C00000F024F855280ED05521FF2000F03FF80B
:1002D000FF2000F01BF80146552804D003A001F0D0
:1002E000B9F9012010BD002010BD00004572726FE9
:1002F0007220726563656976696E6720746865202F
:10030000636F64652025780D0A00000010B504466F
:1003100000F038FF200AA02101EB4000C0B200F03D
:10032000F9FE00F067FEE0B200F0F4FE00F062FEBD
:1003300000F028FFA12000F0EDFE00F05BFE0020A1
:1003400000F0AEFE044600F047FF204610BD70B539
:100350000D46044600F016FF200AA02101EB4000E4
:10036000C0B200F0D7FE00F045FEE0B200F0D2FED1
:1003700000F040FE284600F0CDFE00F03BFE00F00D
:100380002BFFBDE870400A2000F008B8FEE701200E
:1003900000F0EABF704772B6FEE7000070B5044691
:1003A00000F0F4F80546601C02D0044800780444CC
:1003B00000F0ECF8401BA042FAD370BD0000002012
:1003C0002DE9F84F00224FF0010803254FF00F0EE2
:1003D0000B6808FA02F42340A3426ED14E68012E46
:1003E00005D0022E03D0112E01D0122E12D1866814
:1003F0004FEA420C05FA0CF7BE43CF6807FA0CF738
:10040000374387604668A6430C79C4F300149440D0
:1004100034434460C668570005FA07FC8C6826EA36
:100420000C06BC403443C4604C68022C01D0122C32
:1004300013D1D40800EB8404A346D4F820905407C9
:100440004FEAD46A0EFA0AF629EA06090E6906FA94
:100450000AF646EA0906CBF8206006680C7926EA17
:100460000C0604F00304BC40344304604C68E40010
:1004700065D5364C266846F480462660246822F00E
:10048000030604F480440094314C3444A446D4F868
:1004900008489607370F0EFA07F6B4432D4EB042C0
:1004A00001D1002624E02C4EB04201D101261FE0EC
:1004B0002A4EB04202D102261AE040E0284EB04255
:1004C00001D1032614E0274EB04201D104260FE0EB
:1004D000254EB04201D105260AE0244EB04201D19A
:1004E000062605E0224EB04201D1072600E008268C
:1004F000BE402643CCF808681E4E34684F689C43C3
:10050000FF0300D51C4334601A4C241D26684F6835
:100510009E43BF0300D51E432660164E083634683E
:100520004F689C43FF0200D51C433460114E0C36CB
:1005300034684F689C43BF0200D51C433460521C92
:10054000102AFFF445AFBDE8F88F000044380240A0
:100550000030014000000240000402400008024058
:10056000000C02400010024000140240001802403B
:10057000001C0240003C01400069084000D00120FE
:1005800070470AB1816170470904FBE70148806840
:10059000704700000000002070B5040025D094F8DA
:1005A0003D00002520B984F83C50204600F0B8F802
:1005B000242084F83D002068016821F001010160D9
:1005C0002068016841F4004101602068016821F45D
:1005D0000041016000F00AFA4D4A6168914201D879
:1005E0004C4900E04C49884201D2012070BD4B4982
:1005F0002368B0FBF1F15E6826F03F060E435E60B3
:100600006368934206D94FF4967359434FF47A7353
:10061000B1FBF3F12368491C1E6A26F03F06314303
:1006200019626168914210D84900401EB0FBF1F296
:10063000521CC2F30B02042A01D2042022E0B0FBB8
:10064000F1F0401CC0F30B001CE0A268F2B301EB18
:10065000C10303EB0116431EB3FBF6F35B1C43F42B
:1006600080431B0549D092B301EBC10202EB01119B
:10067000401EB0FBF1F0401CC0F30B0040F4804082
:1006800040F400402168CA694CF6FF739A43104356
:10069000C861D4E9071001432068026822F0C00253
:1006A00011430160D4E9030101432068826848F2E4
:1006B000FF339A4311438160D4E90501084321685F
:1006C000CA6822F0FF021043C86001E00EE016E0A5
:1006D0002068016841F0010101602564202084F850
:1006E0003D00256384F83E50002070BD01EB4106BB
:1006F000431EB3FBF6F35B1CB3E70120C2E701EB3B
:100700004101401EB0FBF1F0401CC0F30B00B7E705
:10071000A086010080841E0000093D0040420F00B9
:1007200010B586B0044614216846FFF783FD1949C9
:10073000206888422CD11848016841F0020101600C
:100740000068164C00F0020005904FF440700090D5
:1007500012200190012002900320039004200490B5
:1007600069462046FFF72CFE0B491031086840F41B
:10077000001008600868012200F400100590891537
:100780002046FFF7FEFE012251022046FFF7F9FE48
:1007900006B010BD00540040303802400004024052
:1007A000024881680278114481607047000000208F
:1007B0000B4810B5016841F400710160016841F413
:1007C00080610160016841F480710160032000F0E4
:1007D00061F8002000F006F800F024F8002010BDB9
:1007E000003C024070B50D4D04464FF47A712878F4
:1007F000B1FBF0F00A490968B1FBF0F000F0F6FA3D
:1008000048B9102C07D200222146501E00F022F8D1
:1008100000206C6070BD012070BD00000000002051
:100820000C0000200A4808B5016841F480410160CD
:10083000006800F4804000900548001F016841F006
:1008400080510160006800F08050009008BD0000F9
:1008500044380240F0B40E4B1B680C46C3F302232D
:10086000C3F10705042D00D90425191D072901D25C
:10087000002300E0DB1E012606FA05F1491E214097
:1008800099409E40761E16403143F0BC00F0F2BE07
:100890000CED00E0064900F0070208684FF6FF0380
:1008A000184040EA0220034A1043086070470000E5
:1008B0000CED00E00000FA052DE9F0470E460500BA
:1008C00065D0DFF81481D8F80000F7B200F00F000F
:1008D000B04207D288F80070D8F8000000F00F008E
:1008E000B04254D128683D4C810712D5400703D54A
:1008F000206840F4E05020602878000703D5206885
:1009000040F4604020602068A96820F0F0000843AF
:1009100020602878C0072DD0304968680839012840
:1009200012D0022813D0032811D0096889070029A2
:100930002DDA216821F0030101432160FFF726FE33
:10094000814641F2883A0EE009688903EFE70968B9
:100950008901ECE7FFF71AFEA0EB0901514502D926
:100960000320BDE8F0872068696800F00C00B0EB58
:10097000810FEFD1D8F80010404601F00F01B142CD
:1009800007D90770006800F00F00B04201D00120C5
:10099000E7E72878400705D52068E96820F4E050AB
:1009A000084320602878000706D52068296920F4CC
:1009B000604040EAC100206000F038F82168084A31
:1009C000C1F30311515CC84006490860064800683D
:1009D000FFF708FF0020C4E7003C0240083802404F
:1009E000601A00080C00002004000020044805499B
:1009F00000680968044AC1F38221515CC84070470D
:100A00000C00002008380240701A0008044805490C
:100A100000680968044AC1F34231515CC84070471C
:100A20000C00002008380240701A0008154810B564
:100A3000006810F00C02144813D01449042A0FD097
:100A4000082A0ED10F4C241F2268236802F03F02AF
:100A50005B0207D52068C0F38810A0FB010106E007
:100A6000084610BD2168C1F38811A1FB00010023D5
:100A7000FFF7A8FB2168C1F30141491C4900B0FB05
:100A8000F1F010BD083802400024F40040787D01E8
:100A90002DE9F84F04006ED02078DFF83C93C007B2
:100AA000A9F104054AD009F104000168C1F38101EC
:100AB000012908D00068C0F3810002280AD1D9F8C2
:100AC0000000400206D52868800337D560680028FA
:100AD000E1D033E06068B0F5803F10D0B0F5A02FD2
:100AE000286810D020F480302860286820F4802006
:100AF00028606068A8B1FFF749FD06460DE0286848
:100B000040F48030F4E740F480202860F7E700BF2D
:100B1000FFF73CFD801B642873D828688003F7D555
:100B20000CE0FFF733FD064605E000BFFFF72EFDA2
:100B3000801B6428F0D828688003F7D42078DFF879
:100B40009C8280074FF0000A3ED5A348001D016833
:100B500011F00C0F08D00068C0F3810002280BD1FF
:100B6000D9F80000400207D42868800716D5E0684D
:100B7000012800D112E02BE1E068B8B10120C8F8EB
:100B80000000FFF703FD064605E000BFFFF7FEFC8F
:100B9000801B0228C0D828688007F7D528682169FB
:100BA00020F0F80040EAC10028600DE0C8F800A07D
:100BB000FFF7ECFC064604E0FFF7E8FC801B022888
:100BC0001FD828688007F7D42078000722D5824EE6
:100BD00083486169703671B101210160FFF7D6FC6D
:100BE000074604E0FFF7D2FCC01B022809D8306892
:100BF0008007F7D50EE0C0F800A0FFF7C7FC074656
:100C000005E082E0FFF7C2FCC01B02287DD83068F7
:100C10008007F7D42078400768D5DFF8BCB10027FB
:100C20000BF13C0BDBF80000C0000BD4DBF800102C
:100C300041F08051CBF80010DBF80000012700F0F4
:100C400080500090674E3068C00510D4306840F482
:100C500080703060FFF79AFC009005E0FFF796FC8B
:100C60000099401A022850D83068C005F6D55A4E6F
:100C7000A0686C3601280FD00528306810D020F00D
:100C800001003060306820F004003060A068B8B126
:100C9000FFF77CFC00900FE0306840F00100F4E7C3
:100CA00040F004003060F7E7FFF770FC0099411A4C
:100CB00041F28830814266D830688007F4D50EE072
:100CC000FFF764FC009007E0FFF760FC0099411A11
:100CD00041F28830814256D830688007F4D42FB171
:100CE000DBF8001021F08051CBF80010A069C8B3E8
:100CF0003949091D0968C1F3810102294AD0022836
:100D0000504607D0C8F8600000E03CE0FFF73EFC2A
:100D100004463BE04746C8F86000FFF737FC06464C
:100D200005E000BFFFF732FC801B02282BD82868A3
:100D30008001F7D4D4E907010843A16A2A4A490887
:100D400002EB0141626A41EA8211084394F82C10D7
:100D500040EA0161C9F8001001203866FFF716FC6F
:100D6000044606E036E000BFFFF710FC001B022837
:100D700009D828688001F7D52CE000BFFFF706FCF2
:100D8000001B022802D90320BDE8F88F28688001E3
:100D9000F4D41FE00128F7D0D9F80000E26900F48C
:100DA0008001914214D1226A00F03F0191420FD19B
:100DB00047F6C071626A0140914209D1A26A00F40B
:100DC0004031914204D1E16A00F07060884201D064
:100DD0000120D9E70020D7E704380240000047424D
:100DE000800E4742007000400000FFFF10B5401E1B
:100DF000B0F1807F01D3012010BD4FF0E02460618D
:100E00000F21601700F036FC0020A0610720206150
:100E1000002010BD70B5040004D094F839000025FE
:100E200010B106E0012070BD84F83850204600F073
:100E300023F8242084F839002068C16821F4005187
:100E4000C160204600F024FB2068016921F4904134
:100E500001612068416921F02A0141612068C1686F
:100E600041F40051C160E563202084F8390084F822
:100E70003A00002070BD000010B586B00446142171
:100E80006846FFF7D7F914492068884221D11348F2
:100E90000021026842F010020260006800F01000B9
:100EA00005900E481438026842F0010202600068A2
:100EB00000F0010005904FF4C06000900220CDE9E1
:100EC0000101032003900720049069460448FFF7BE
:100ED00077FA06B010BD000000100140443802400F
:100EE000000002402DE9F843044690F839001F46FF
:100EF00016460D46202850D1B5B1AEB194F8380051
:100F000001284AD0012084F838004FF00008C4F8C6
:100F10003C80212084F83900FFF738FBA684814605
:100F2000E68484F8388026E00120BDE8F883E08C70
:100F3000401EE084A0684B46B0F5805F4FF0000291
:100F40004FF080012046009703D000F035FBE8B950
:100F50000DE000F031FBC8B928882168C0F3080013
:100F60004860206908B16D1C05E0AD1C03E02168F4
:100F700015F8010B4860E08C0028D8D14B460022C0
:100F800040212046009700F017FB08B10320CCE772
:100F9000202084F839000020C7E70220C5E7FEE7DB
:100FA00070B5134C4FF48075002229462046FFF798
:100FB000E8FA206820F440202060206840F4802077
:100FC0002060002261152046FFF7DBFA0220FFF7C0
:100FD000E5F9012229462046FFF7D3FA0220FFF760
:100FE000DDF929462046BDE870400022FFF7C9BA66
:100FF0000004024070B5144D00242846296821F4ED
:101000004021296029682960012256023146FFF7F4
:10101000B8FA0120FFF7C2F907E0641CE4B2FA2C29
:1010200003D900F0D9F8012070BD31462846FFF7FA
:10103000A3FA0128F1D000224FF480712846FFF76F
:10104000A0FA002070BD00000004024070B5134CEF
:101050004FF48075002229462046FFF792FA206857
:1010600020F440202060206840F48020206001228D
:1010700051022046FFF785FA0220FFF78FF901227F
:1010800029462046FFF77DFA0220FFF787F9294617
:101090002046BDE870400022FFF773BA000402400A
:1010A0002DE9F0471A4C80460025206820F44020A6
:1010B0002060206820602E46A7154FF4007900229A
:1010C00039462046FFF75DFA0220FFF767F9012253
:1010D00039462046FFF755FA6806050E4946204670
:1010E000FFF74AFA012801D16D1CEDB20120FFF78C
:1010F00055F9761CF6B2082EE1D3B8F1000F04D0F2
:10110000FFF74EFF2846BDE8F087FFF79FFFF9E79E
:10111000000402402DE9F041194C064620462168A2
:1011200021F440212160216841F480212160A7152C
:1011300000223946FFF725FA00254FF40078F2091E
:1011400041462046FFF71DFA7006060E0220FFF703
:1011500025F9012239462046FFF713FA0220FFF74E
:101160001DF9002239462046FFF70BFA0220FFF74F
:1011700015F96D1CEDB2082DE1D3BDE8F08100003A
:101180000004024070B5134C206820F44020206019
:10119000206840F480202060012215022946204664
:1011A000FFF7EFF90122560231462046FFF7E9F931
:1011B0000420FFF7F3F8002231462046FFF7E1F95B
:1011C0000420FFF7EBF829462046BDE870400022D6
:1011D000FFF7D7B90004024070B5134C206820F423
:1011E00040202060206840F480202060A515002267
:1011F00029462046FFF7C5F96615002231462046EC
:10120000FFF7BFF90420FFF7C9F80122294620465D
:10121000FFF7B7F90420FFF7C1F831462046BDE8D3
:1012200070400122FFF7ADB90004024010B5332031
:1012300000F09AF80520FFF7B1F8322000F094F89A
:101240000520FFF7ABF8282000F08EF80520FFF707
:10125000A5F80C2000F088F80520FFF79FF8012082
:1012600000F082F80520FFF799F80821BDE810404A
:101270000020FFF76CB8000070B586B014216846F6
:10128000FEF7D8FF16480025016841F020010160F3
:10129000016801F020010591016841F00101016040
:1012A000016801F001010591016841F0020101604E
:1012B00000680C4E00F002004FF4C064059000225C
:1012C00021463046FFF75DF90121CDE90041CDE926
:1012D000021569463046FFF773F806B070BD00008E
:1012E00030380240001402400D4810B50B4901602F
:1012F0000C49416000214FF480428160C0E9031233
:1013000041618161C1610162FFF746F9002803D0A4
:10131000BDE81040FFF73FB810BD0000005400408A
:1013200014000020A08601000C4810B50A49016095
:101330004FF4E1314160002181600C22C160C0E9BD
:1013400004128161C161FFF765FD002803D0BDE88B
:101350001040FFF720B810BD0010014068000020C9
:10136000FEE7FEE77047704710B5044600F0F00056
:1013700040F004010020FEF7EAFF0220FFF70EF81C
:101380000220FFF70BF82007000E40F0040421466E
:101390000020FEF7DCFF0220FFF700F804F0FB015D
:1013A000BDE810400020FEF7D2BF70B5044600F043
:1013B000F00040F0050529460020FEF7C8FF022096
:1013C000FEF7ECFF05F0FB010020FEF7C0FF200751
:1013D000000E40F0050421460020FEF7B8FF022071
:1013E000FEF7DCFF04F0FB01BDE870400020FEF7D3
:1013F000AEBFFFF7D5B9000010B592B030216846F6
:10140000FEF718FF14210CA8FEF714FF174800245C
:10141000016841F080510160006800F08050119037
:101420001348016841F4804101600068069400F4AB
:101430008040119002200090012003901020049021
:101440006846FFF725FB08B172B6FEE70F20CDE92D
:101450000C040E940F9400210CA81094FFF72CFAA2
:10146000002801D072B6FEE712B010BD403802402D
:10147000007000400548016841F4700101600349B3
:101480004FF00060803908607047000088ED00E090
:101490002DE9F041044600680169E26821F44051F9
:1014A000114301612169A068E26908436169114340
:1014B00008432168CA6849F20C639A430243CA6030
:1014C00020684169A26921F4407111434161E069DA
:1014D000192764253226B0F5004F354A3549206872
:1014E0004FF0000806D0884201D0904236D1FFF775
:1014F0008DFA35E0884201D0904202D1FFF786FA9A
:1015000001E0FFF773FA61684A18A0FB070148EB96
:101510000803FEF757FE0146B0FBF5F00201B1FBF0
:10152000F5F06FF01803584301EB800006EBC000A4
:10153000B0FBF5F000F0F80002EB4002B1FBF5F073
:10154000584301EB800006EBC000B0FBF5F000F063
:101550000700216810448860BDE8F081FFF746FA73
:1015600061688B0F8A00A0FB0701FEF72BFE014686
:10157000B0FBF5F06FF01802504301EB800006EB72
:101580000010B0FBF5F000F0F002B1FBF5F002EB5B
:101590000012B1FBF5F06FF01803584301EB800027
:1015A00006EB0010B0FBF5F000F00F00D1E70000F3
:1015B00000140140001001402DE9F0419846174603
:1015C0000E460446069D1DE0681C1BD02DB1FEF79B
:1015D000DDFFA0EB0800A84214D92068C16821F4FF
:1015E000D071C1602068416921F001014161202072
:1015F00084F8390084F83A00002084F83800032089
:10160000BDE8F0812068006836EA000004D00020C0
:10161000B842D9D00020F3E70120F9E7FEE770B522
:1016200015460F2800D90F20012900D9012100EB10
:1016300081108030C0B2FFF797FE002404E0285DDF
:10164000FFF7B3FE641CE4B22846FEF7FEFDA0429D
:10165000F5D870BD0FB4054B10B503A9044A029824
:1016600000F028F810BC5DF814FB000075190008A4
:10167000100000200907090E002804DB00F1E0201B
:1016800080F80014704700F00F0000F1E02080F8AF
:10169000141D704702E008C8121F08C1002AFAD1C1
:1016A00070477047002001E001C1121F002AFBD1E2
:1016B000704700002DE9FF4F8DB09B460F46044652
:1016C000002606E025280BD05A460F999047641C47
:1016D000761C20780028F5D111B03046BDE8F08F97
:1016E0000025A8460122984900E0054314F8013F6F
:1016F000203B02FA03F00842F7D120782E2817D1B8
:1017000014F8010F45F004052A280ED06FF02F02BF
:101710002078A0F1300109290AD808EB880102EBF2
:10172000410100EB0108641CF2E757F8048B641CCC
:1017300020786C280DD004DC4C2812D06A2811D1F6
:1017400004E074280DD07A280CD10AE045F4001585
:1017500007E0617845F48015814202D1641C05F5EB
:101760008015641C2078692844D008DC0028B3D098
:10177000582867D063280FD0642808D13AE0702831
:1017800065D0732812D075285AD078285AD05A4676
:101790000F999047761CD5E017F8040B8DF80000E0
:1017A00000208DF80100E946012003E057F8049B72
:1017B0004FF0FF3069074FF0000501D40AE06D1CBF
:1017C00045450DDA8542FADB19F805100029F6D1F6
:1017D00006E06D1C8542FCDB19F805100029F8D1E4
:1017E0002E4404E019F8010B5A460F9990476D1EDC
:1017F000F8D2A7E00A200021CDE90801C5F3025084
:1018000002280CD001CFC117021E71F100020CDAC0
:101810000023D0EB030063EB01012D2208E0FF1D44
:1018200027F00707F7E80201EEE72A0504D52B2287
:101830008DF8282001223CE0EA073AD02022F7E781
:101840000A2000E010200021CDE9080107E0102067
:10185000002145F00405CDE908014FF00808C5F363
:101860000250022810D001CF00214FF0000A2A07B1
:1018700020D52278702A0DD0DDE908C38CF0100C39
:101880005CEA030C0CD015E0FF1D27F00707F7E812
:101890000201EAE740228DF828204FF0010A0CE00F
:1018A00050EA010306D030238DF828308DF8292026
:1018B000022292462278582A04D024A20DF120094F
:1018C0000B9209E026A2F9E7DDE90823FEF77AFC8E
:1018D0000B9B9B5C09F8013D50EA0102F4D1ADEB92
:1018E000090020300890680701D44FF001080899DA
:1018F000884503DD0898A8EB000000E00020804642
:10190000002506E00AA85A46405D0F9990476D1CD5
:10191000761C5545F6DB04E030205A460F99904777
:10192000761CB8F10001A8F10108F5DC05E019F812
:10193000010B5A460F999047761C0899481E08904B
:101940000029F4DC641CC4E609280100303132337C
:1019500034353637383961626364656600000000EB
:1019600030313233343536373839414243444546D5
:101970000000000013B54FF6FF73012269460248CC
:10198000FFF7B0FA00981CBD68000020FEF710FFBA
:10199000FFF732FDFFF770FCFFF7A6FCFFF7C4FC72
:1019A0004FF4FA740BE013A0FFF754FE2046FEF745
:1019B000F5FC16A0FFF74EFEC820FEF7EFFCFEF781
:1019C0007DFC0028EFD1FFF731FC6420FEF7E6FC38
:1019D00040F2DC5400211BA20846FFF720FE1CA2A7
:1019E00001210020FFF71BFE2046FEF7D7FCFEF783
:1019F000CEFCEFE7323443303220436865636B201E
:101A00004661696C6564210D0A000000506C6561D7
:101A100073652074727920746F207265636F6E6EC7
:101A2000656374206F7220636865636B20796F75DE
:101A30007220736F7572636520636F6465210D0A90
:101A400000000000486F6C61204D756E646F0000EF
:101A500046726F6D20526F6472696775657A000017
:101A6000000000000000000001020304060708094E
:101A70000000000001020304981A00080000002082
:101A80001400000094160008AC1A0008140000208E
:101A900094040000A41600080100000010000000DB
:0C1AA000000000000024F4000000000022
:040000050800018965
:00000001FF
